{
  "_format": "hh-sol-artifact-1",
  "contractName": "WavePortal",
  "sourceName": "contracts/WavePortal.sol",
  "abi": [
    {
      "inputs": [],
      "stateMutability": "nonpayable",
      "type": "constructor"
    },
    {
      "inputs": [],
      "name": "getTotalWaves",
      "outputs": [
        {
          "internalType": "uint256",
          "name": "",
          "type": "uint256"
        }
      ],
      "stateMutability": "view",
      "type": "function"
    },
    {
      "inputs": [],
      "name": "wave",
      "outputs": [],
      "stateMutability": "nonpayable",
      "type": "function"
    }
  ],
  "bytecode": "0x608060405234801561001057600080fd5b50610176806100206000396000f3fe608060405234801561001057600080fd5b50600436106100365760003560e01c80636fe15b441461003b5780639a2cdc0814610045575b600080fd5b610043610063565b005b61004d61007e565b60405161005a9190610096565b60405180910390f35b600160008082825461007591906100b1565b92505081905550565b60008054905090565b61009081610107565b82525050565b60006020820190506100ab6000830184610087565b92915050565b60006100bc82610107565b91506100c783610107565b9250827fffffffffffffffffffffffffffffffffffffffffffffffffffffffffffffffff038211156100fc576100fb610111565b5b828201905092915050565b6000819050919050565b7f4e487b7100000000000000000000000000000000000000000000000000000000600052601160045260246000fdfea2646970667358221220e5abf7f33d7a70633ffdcec3caeb2ef2021385adf305781b31524618a510a94564736f6c63430008040033",
  "linkReferences": {},
  "deployedLinkReferences": {}
}